:0300000002096B87
:0C096B00787FE4F6D8FD7581260209B201
:100B7A000B0D3F065B4F666D7D077F6F0008180AF5
:100B8A000A0A0A0A0A0A0A01080102090000020BF3
:020B9A00000059
:050C0E007F02DFFE2261
:100BBE007C007D64120800AA06AB07EB1BAE027028
:0B0BCE00011A4E6005120C0E80F1228F
:1009F700E4FDFCEC7053EDB40800504D900A0AF882
:100A0700282873020A22020A26020A2E020A320242
:100A17000A3A020A3E020A46020A4AD2A28002C2E1
:100A2700A2D2A3D2A48022D2A28002C2A2C2A3D2FF
:100A3700A48016D2A28002C2A2D2A3C2A4800AD2E4
:100A4700A28002C2A2C2A3C2A474182DF8E6240D84
:100A5700F8E6F580120C0EE4F5800DBD00010CEDF3
:060A670064084C708E22B1
:100A6D008F248E238D228C21E4F525F526F5257511
:100A7D002607E47B0AFAF9F8AF24AE23AD22AC21A8
:100A8D00120884AF0374182526F8A607AF24AE23E9
:100A9D00AD22AC21E47B0AFAF9F81208848F248E7A
:100AAD00238D228C21E526152670021525E526B409
:080ABD00FFC0E525B4FFBB22D8
:100B9D00E508B4011320B1107F147E00120BBEE4E2
:100BAD00F50820B1097F012230B1037508017F00DE
:010BBD002215
:03000300020C13D9
:030C1300D2A0323A
:03001300020C16C6
:030C1600C2A03247
:090C0500D288D2A8D28AD2AA2218
:03000B00020AC521
:100AC500C0E0C0F0C0D075D000C000C004C005C0F3
:100AD50006C007050AE50A70020509AE09FF7C0193
:100AE5007DF4120812ED4C7006F509F50AB2A075F1
:100AF5008A66758CFCD007D006D005D004D000D00E
:060B0500D0D0F0D0E03278
:100BD900538E7F5389F0438901758A66758CFCC2EF
:060BE9008DD28CD2A9227E
:03001B00020B0BCA
:100B0B00C0E0C0F0C0D075D000C000C004C005C0AC
:100B1B0006C007050CE50C7002050BAE0BFF7C0342
:100B2B007DE8120812ED4C7006F50BF50CB2A175B1
:100B3B008B66758DFCD007D006D005D004D000D0C5
:060B4B00D0D0F0D0E03232
:100BEF00538EBF53890F438910758B66758DFCC269
:060BFF008FD28ED2AB2262
:100B51007F007E007D007C00E4F520120A6DD2A0AA
:100B6100120C05120BD9120BEFD2AF120B9D8F2075
:090B7100E520B401F6B2A080F207
:10097700020B51E493A3F8E493A34003F68001F23A
:1009870008DFF48029E493A3F85407240CC8C33381
:10099700C4540F4420C8834004F456800146F6DF50
:1009A700E4800B0102040810204080900B7AE47E5B
:1009B700019360BCA3FF543F30E509541FFEE49345
:1009C700A360010ECF54C025E060A840B8E493A30C
:1009D700FAE493A3F8E493A3C8C582C8CAC583CA37
:1009E700F0A3C8C582C8CAC583CADFE9DEE780BEEF
:010B9C000058
:10080000EF8DF0A4A8F0CF8CF0A428CE8DF0A42E0C
:02081000FE22C6
:10081200C2D5EC30E709B2D5E4C39DFDE49CFCEE01
:1008220030E715B2D5E4C39FFFE49EFE120916C35A
:10083200E49DFDE49CFC800312091630D507C3E455
:060842009FFFE49EFE2270
:1008480075F008758200EF2FFFEE33FECD33CDCC67
:1008580033CCC58233C5829BED9AEC99E5829840EA
:100868000CF582EE9BFEED9AFDEC99FC0FD5F0D6C7
:10087800E4CEFBE4CDFAE4CCF9A88222B800C1B9F1
:100888000059BA002DEC8BF084CFCECDFCE5F0CB2F
:10089800F97818EF2FFFEE33FEED33FDEC33FCEB68
:1008A80033FB10D703994004EB99FB0FD8E5E4F923
:1008B800FA227818EF2FFFEE33FEED33FDEC33FC10
:1008C800C933C910D7059BE99A4007EC9BFCE99A04
:1008D800F90FD8E0E4C9FAE4CCFB2275F010EF2F49
:1008E800FFEE33FEED33FDCC33CCC833C810D70749
:1008F8009BEC9AE899400AED9BFDEC9AFCE899F884
:0E0908000FD5F0DAE4CDFBE4CCFAE4C8F92216
:10091600BC000BBE0029EF8DF084FFADF022E4CCC5
:10092600F875F008EF2FFFEE33FEEC33FCEE9DEC8E
:10093600984005FCEE9DFE0FD5F0E9E4CEFD22EDD4
:10094600F8F5F0EE8420D21CFEADF075F008EF2F1E
:10095600FFED33FD4007985006D5F0F222C398FD0F
:050966000FD5F0EA22AC
:00000001FF
