:030000000208E013
:0C08E000787FE4F6D8FD7581220209271C
:100A95000B093F065B4F666D7D077F6F0008140AE3
:0A0AA5000A0A0A0A0A0A0A010801F7
:050AB0007F02DFFE22C1
:100A7A007C007D64120800AA06AB07EB1BAE02706D
:0B0A8A00011A4E6005120AB080F12234
:10096C00E4FDFCEC7053EDB40800504D90097FF899
:10097C0028287302099702099B0209A30209A702FE
:10098C0009AF0209B30209BB0209BFD2A28002C29D
:10099C00A2D2A3D2A48022D2A28002C2A2C2A3D28B
:1009AC00A48016D2A28002C2A2D2A3C2A4800AD270
:1009BC00A28002C2A2C2A3C2A474142DF8E6240918
:1009CC00F8E6F580120AB0E4F5800DBD00010CEDDF
:0609DC0064084C708E223D
:1009E2008F208E1F8D1E8C1DE4F521F522F52175B9
:1009F2002207E47B0AFAF9F8AF20AE1FAD1EAC1D48
:100A020012084EAF0374142522F8A607AF20AE1FBA
:100A1200AD1EAC1DE47B0AFAF9F812084E8F208E47
:100A22001F8D1E8C1DE522152270021521E522B4B0
:080A3200FFC0E521B4FFBB2267
:100A3A00E508B4011320B1107F147E00120A7AE48B
:100A4A00F50820B1097F012230B1037508017F0042
:010A5A002279
:100A5B007F007E007D007C00E4F51C1209E2120988
:0F0A6B006C120A3A8F1CE51CB401F3B2A080EFA5
:1008EC00020A5BE493A3F8E493A34003F68001F2BD
:1008FC0008DFF48029E493A3F85407240CC8C3330D
:10090C00C4540F4420C8834004F456800146F6DFDB
:10091C00E4800B0102040810204080900A95E47ECC
:10092C00019360BCA3FF543F30E509541FFEE493D0
:10093C00A360010ECF54C025E060A840B8E493A397
:10094C00FAE493A3F8E493A3C8C582C8CAC583CAC2
:10095C00F0A3C8C582C8CAC583CADFE9DEE780BE7A
:010AAF000046
:10080000EF8DF0A4A8F0CF8CF0A428CE8DF0A42E0C
:02081000FE22C6
:1008120075F008758200EF2FFFEE33FECD33CDCC9D
:1008220033CCC58233C5829BED9AEC99E582984020
:100832000CF582EE9BFEED9AFDEC99FC0FD5F0D6FD
:10084200E4CEFBE4CDFAE4CCF9A88222B800C1B927
:100852000059BA002DEC8BF084CFCECDFCE5F0CB65
:10086200F97818EF2FFFEE33FEED33FDEC33FCEB9E
:1008720033FB10D703994004EB99FB0FD8E5E4F959
:10088200FA227818EF2FFFEE33FEED33FDEC33FC46
:10089200C933C910D7059BE99A4007EC9BFCE99A3A
:1008A200F90FD8E0E4C9FAE4CCFB2275F010EF2F7F
:1008B200FFEE33FEED33FDCC33CCC833C810D7077F
:1008C2009BEC9AE899400AED9BFDEC9AFCE899F8BA
:0E08D2000FD5F0DAE4CDFBE4CCFAE4C8F9224D
:00000001FF
